:100000000F308A00432F00000A108A100A1182075D
:10001000F6346034D534F1346334B334B734E03477
:10002000F734F33401340834E734963497348734A2
:1000300067343734963475342534763417340434C1
:100040006434C33435340A108A100A11820722340A
:10005000003429340034303400343734003403178A
:100060001F08F8011E02031838281E08F70044284C
:10007000F7010830A0009E0DF70D1F087702031846
:10008000F700F80DA00B3B28031308000317160810
:100090009E000A309F0003132F20780EF700F030E7
:1000A000F7057708F0390317970016089E000A3005
:1000B0009F0003132F2077080F3903171704F80048
:1000C000031308000830F80000008711A011200871
:1000D00083168700000083120317990D031307127C
:1000E000031C782820162008831687007C2883129A
:1000F000201220088316870000008312A015200814
:10010000831687008312871D8328F80B642800005C
:100110008711A01120088316870000008312201683
:10012000200883168700000000008312A015200815
:10013000831687008312871D9B28F8010000071A89
:1001400078148711A01120088316870083120712E4
:10015000201220088316870083120800201620082A
:100160008316870000008312A015200883168700DD
:100170000000831207122012200883168700000057
:1001800083128711A011200883168700D0308312B4
:10019000031799000313622003171708990003132C
:1001A0006220031718089900031362202012200808
:1001B0008316870000008312A0152008831687008D
:1001C0008312871DE1280000E52800002016200882
:1001D0008316870000008312080003171508960095
:1001E0000313462078080317960097011608980015
:1001F0000313AE2003171408960003134620780853
:100200000317960001309700160898000313AE20DC
:100210000317130896000313462078083F39031785
:10022000960002309700160898000313AE200800CD
:100230000430831668078400831369188317000845
:10024000F700840A0008F800840A0008F900840A0C
:100250000008FA007708EA007808EB007908EC005B
:100260007A08ED000F30680784008313691883173C
:100270008008031D52296C08831203179E003C302E
:100280009F0003132F2078088316EB006C0883125D
:1002900003179E003C309F0003132F20770883161E
:1002A000EC0071290F3068078400831369188317E5
:1002B000000B7129EB016D08831203179E003C307F
:1002C0009F0003132F2078088316EC006D0883121B
:1002D00003179E003C309F0003132F2077088316DE
:1002E000ED00EF01EA30EE0001306E078400831369
:1002F0006F1883170008831203179E0018309F00A1
:1003000003132F207708031790000230831603137E
:100310006E07840083136F18831700088312031776
:100320009E003C309F0003132F2077080317910095
:100330000330831603136E07840083136F1883172B
:100340000008831203179E003C309F0003132F20E8
:100350007708031792001008930011089400120800
:1003600095000313ED20080020300317C600C201DA
:10037000C301C401C5013D08FA003C08F9003B086F
:10038000F8003A08F7000310771CD4293E08C2078A
:100390003F0803183F0FC30740080318400FC40766
:1003A00041080318410FC507C50CC40CC30CC20C8F
:1003B000FA0CF90CF80CF70CC60BC3290313080050
:1003C00001300317260784008313271883170008BA
:1003D000B701B601B501B400B9010408B80039107D
:1003E000831B39143708BD003608BC003508BB0034
:1003F0003408BA00C101C0010E30BF001030BE0089
:100400000313B421031738088400831339188317A2
:100410007A08AB007908AA007808A9007708A80034
:100420000230260784008313271883170008B701BA
:10043000B601B501B400B9010408B8003910831B36
:1004400039143708BD003608BC003508BB00340835
:10045000BA00C101C001BF013C30BE000313B4218A
:100460000317380884008313391883177A08AF00FC
:100470007908AE007808AD007708AC002C08280792
:10048000B4002908B5002D0803182D0FB5072A0858
:10049000B6002E0803182E0FB6072B08B7002F083A
:1004A00003182F0FB707033026078400831327187C
:1004B000831700083407B0003508B1000030031876
:1004C0000130B1073608B200003003180130B2071E
:1004D0003708B300003003180130B3073008F700C5
:1004E0003108F8003208F9003308FA000313080055
:1004F00083187D2A3E3084008317031739083D0690
:100500008039C300B91F8F2AB609B709B809B909DC
:10051000B60A0319B70A0319B80A0319B90ABD1FA5
:100520009C2ABA09BB09BC09BD09BA0A0319BB0A4E
:100530000319BC0A0319BD0AF701F801F901FA0110
:10054000BE01BF01C001C1013D083C043B043A04A7
:100550000319DA2A2030C2000310B60DB70DB80D0A
:10056000B90DBE0DBF0DC00DC10D3D084102031DEB
:10057000C32A3C084002031DC32A3B083F02031D57
:10058000C32A3A083E02031CD42A3A08BE023B089A
:10059000031C3B0FBF023C08031C3C0FC0023D087C
:1005A000031C3D0FC1020314F70DF80DF90DFA0DF0
:1005B000C20BAC2AC31FE72AF709F809F909FA099F
:1005C000F70A0319F80A0319F90A0319FA0A3E0887
:1005D0008000840A3F088000840A40088000840A62
:1005E0004108800003130800043083166C07F800EC
:1005F0006D08FA000318FA0A780883120317A4009A
:100600007A08A500A7002408A6000313E0217A08B1
:1006100003179300790892007808910077089000FA
:100620000830831603136C07F8006D08FA000318EE
:10063000FA0A780883120317A4007A08A500A70015
:100640002408A6000313E0217A080317970079080D
:100650009600780895007708940010081402980016
:10066000150899001108031C110F990216089A0029
:100670001208031C120F9A0217089B001308031C90
:10068000130F9B029B1F492BF701F801F901FA0197
:10069000512B1808F7001908F8001A08F9001B0870
:1006A000FA007A089B0079089A0078089900770880
:1006B000980083101B08B9001A08B8001908B70081
:1006C0001808B600BD01BC010E30BB001030BA00E6
:1006D000031378227A0803179F0079089E00780890
:1006E0009D0077089C0083142430840083171B0826
:1006F000B9001A08B8001908B7001808B600BD01FB
:10070000BC010E30BB001030BA000313782203176F
:100710002708AB002608AA002508A9002408A8007D
:10072000AD010408AC002D10831B2D148310270885
:10073000B9002608B8002508B7002408B600BD0196
:10074000BC01BB013C30BA000313782203172C080C
:10075000840083132D1883177A08A3007908A20058
:100760007808A1007708A0000330831603136C07F4
:10077000F8006D08FA000318FA0A780883120317C4
:10078000A4007A08A500A7010408A6002710831B6F
:10079000271483142830840083171B08B9001A0813
:1007A000B8001908B7001808B600BD01BC010E302A
:1007B000BB001030BA000313782203172808F70093
:1007C0002908F8002A08F9002B08FA0026088400F6
:1007D0008313271883172B08AF002A08AE002908B7
:1007E000AD002808AC00B1010408B0003110831B33
:1007F000311483143230840083172B08B9002A087F
:10080000B8002908B7002808B600BD01BC01BB012B
:100810003C30BA0003137822031730088400831396
:10082000311883172408840083132518831732088E
:1008300080000130831603136C07840083136D1846
:100840008317831203171C088000023083160313DA
:100850006C07840083136D18831783120317200815
:1008600080000313080003179301940195010313FB
:10087000ED2001308316E800E900EA00EB0068088B
:100880008312031796000313462078088316EC00A2
:100890000330831203179700831603136C08831227
:1008A000031798000313AE208316690883120317F9
:1008B00096000313462078088316EC000430831258
:1008C00003179700831603136C088312031798000D
:1008D0000313AE2083166A088312031796000313CE
:1008E000462078088316EC00053083120317970022
:1008F000831603136C088312031798000313AE20AA
:1009000083166B088312031796000313462078089A
:100910008316EC0006308312031797008316031327
:100920006C088312031798000313AE200800031706
:1009300097010313201620088316870000008312F6
:10094000A0152008831687000000831207122012CA
:10095000200883168700000083128711A011200849
:1009600083168700D0308312031799000313622087
:100970000317160899000313622020162008831617
:10098000870000008312A01520088316870000004E
:100990008312871DC92C0712201220088316870096
:1009A000000083128711A011200883168700D13020
:1009B00083120317990003136220F701083003170D
:1009C000990077089A0003132016200883168700E1
:1009D00000008312A0152008831687008312871D4C
:1009E000EF2C071A0314071E0310F80D0000A011C6
:1009F000200883168700831287110317990BE32CB5
:100A000003132016200883168700000083120712A4
:100A100003171A080319132D031320122008831635
:100A200087008312031700000313A0152008831604
:100A300087008312871D1A2D00008711A01120083E
:100A400083168700000083120712201220088316E5
:100A500087007808831203179700031320122008D9
:100A60008316870000008312A015200883168700D4
:100A70008312871D392D00003D2D0000201620080F
:100A8000831687000000831203171708F80003136A
:100A90000800F701F80103171C0803101D18F707D9
:100AA000F70CF80C9D18F707F70CF80C1D19F70751
:100AB000F70CF80C9D19F707F70CF80C1D1AF7073F
:100AC000F70CF80C9D1AF707F70CF80C1D1BF7072D
:100AD000F70CF80C9D1BF707F70CF80C0313080034
:100AE000031716080F3997001608F039F700F70EAC
:100AF0000F30F705770899009C000A309D0003131A
:100B00004925780803171707F80003130800043075
:100B100083166807F8006908FA000318FA0A7808CB
:100B2000EA007A08EB008312031790019101920109
:100B30009601031397247808031792001208960071
:100B400003137025780803179200013096000313F1
:100B50009724780803179100110896000313702555
:100B60007808031791000230960003139724780841
:100B70003F3903179000100896000313702578087A
:100B800003179000100893001108940012089500B4
:100B90001308970014089800150899001608F70024
:100BA0001708F8001808F9001908FA007A088316DF
:100BB0000313EF007908EE007808ED007708EC00E9
:100BC0006C08F7006D08F8006E08F9006F08FA006D
:100BD0006A08840083136B18831777088000840ADF
:100BE00078088000840A79088000840A7A088000E6
:100BF0000F30680784008313691883178008031D6A
:100C00002F2E06306807F8006908FA000318FA0A60
:100C10007808EA007A08EB006A08840083136B18EE
:100C200083170008EC0005306807840083136918F7
:100C3000831700080139EE00831203179C003C3033
:100C40009D0003134925780883166C07EC006A0899
:100C5000840083136B1883176C088000642E0F3098
:100C600068078400831369188317000B642E07300C
:100C70006807F8006908FA000318FA0A7808EA0019
:100C80007A08EB006A08840083136B188317000846
:100C9000EC00063068078400831369188317000886
:100CA0000139EE00831203179C003C309D000313B2
:100CB0004925780883166C07EC006A0884008313C2
:100CC0006B1883176C0880006808F8006908FA0040
:100CD0006808EA006908EB00ED006808EC00831280
:100CE000F4220800F801F901F701FA0103173708A7
:100CF000031D7D2E36080319972E1030B8000310FF
:100D0000B40DB50DF70DFA0D37087A02031D8A2EC2
:100D100036087702031C932E3608F702031CFA03E9
:100D20003708FA020314F80DF90DB80B7F2E0313E0
:100D3000080003173008B5002F08B4003108B600CA
:100D4000B701B701360837020318AF2E370834074A
:100D500084008313351883178001B70AA22EB201CD
:100D6000AD08031DB62EAE080319DA2E2E08B50005
:100D70002D08B400B7010A30B600031372267708B5
:100D80000317B30032082F0784008313301883172A
:100D900033088000B20A2E08B5002D08B400B70150
:100DA0000A30B6000313722679080317AE007808DC
:100DB000AD00B02E03130800013003172207840092
:100DC0008313231883170008AB00A4080319112FFD
:100DD0002208840083132318831700080139013C7B
:100DE000031D112F0130220784008313231883175A
:100DF0008008031DFE2E0C30AB00112F013022079E
:100E0000840083132318831700080C3C0318112F48
:100E10000130220784008313231883170C3000024B
:100E2000AB00AE012B08AD000130B0002530AF00A3
:100E30000230B10003139926023003172207840001
:100E40008313231883170008AC00AE012C08AD00F3
:100E50000130B0002730AF000230B10003139926F3
:100E60000330031722078400831323188317000815
:100E7000AC00AE012C08AD000130B0002930AF004D
:100E80000230B100031399262530F8000130F90033
:100E9000080001300317A300A40183160313851172
:100EA0008312851183168510831285100317A40100
:100EB000220824020318862F2408200784008313A5
:100EC000211883170008A5000130A3002308083C5F
:100ED000031C842F2518702F03130510722F03177E
:100EE0000313051483160510031083120317A50CB2
:100EF00083160313851183128515831685118312BA
:100F000085110317A30A662FA40A582F831603130B
:100F100085108312851483168510831285100800AE
:100F200003179F080319C92F1D08A1001C08A00062
:100F30001E08A200A301A301220823020318C82F40
:100F400023082007F8002108FA000318FA0A780895
:100F5000A4007A08A5002308200784008313211821
:100F60008317000803130420F800031724088400E3
:100F7000831325188317780880002308200784002E
:100F8000831321188317000808388000A30A9C2FB8
:100F9000F42F1D08A1001C08A0001E08A200A30138
:100FA000A301220823020318F42F23082007F800C6
:100FB0002108FA000318FA0A7808A4007A08A500A4
:100FC00023082007840083132118831700080313C4
:100FD0000420F800031724088400831325188317BE
:100FE00078088000A30AD12F1D08A1001C08A000CA
:0A0FF0001E08A200031349270800A1
:101000000F308316680784008313691883178008DC
:10101000031D8C286808EB006908EC006C08EE00E2
:101020006B08ED006A08EF0083120317900191012D
:10103000831603136D08840083136E18831700084A
:10104000F700840A0008F800840A0008F900840AFE
:101050000008FA00770883120317980078089900AF
:1010600079089A007A089B0019089C003C309D0082
:101070008A11031349258A15780803171A079D005A
:101080009E0064309F008A1103132F208A15770871
:1010900003179A000130A3001830A200A4018A119E
:1010A0000313DC268A157908FA00780803179C00D8
:1010B0007A089D0001309F0012309E000630F80033
:1010C0001C08840083131D1883170008F7001E08EE
:1010D000840083131F188317770880009E0A031962
:1010E0009F0A9C0A03199D0AF80B602814089000B7
:1010F0001508910001309D0010309C0002309E00C8
:10110000831603136F08831203179F008A110313BA
:1011100090278A150E2983160F30680784008313E1
:1011200069188317000B0F296808EB006908EC00A9
:101130006C08EE006B08ED0083120317900191011B
:10114000831603136D08840083136E188317000839
:10115000F700840A0008F800840A0008F900840AED
:101160000008FA007708831203179800780899009E
:1011700079089A007A089B001A089C003C309D0070
:101180008A11031349258A15780803171B079D0048
:101190009E0064309F008A1103132F208A15770860
:1011A00003179B000130A3001830A200A4018A118C
:1011B0000313DC268A157908FA00780803179C00C7
:1011C0007A089D0001309F0012309E000630F80022
:1011D0001C08840083131D1883170008F7001E08DD
:1011E000840083131F188317770880009E0A031951
:1011F0009F0A9C0A03199D0AF80BE828160890001C
:101200001708910001309D0010309C0002309E00B4
:1012100001309F008A11031390278A1583168312C9
:10122000080083166808F8006908FA007808EA00E0
:101230007A08EB006B08ED006A08EC006C08F80017
:101240006D08FA007808EE007A08EF006F08831244
:1012500003179100831603136E088312031790007F
:101260000130100784008313111883178008031DB1
:101270004B2902301007840083131118831780084C
:10128000031D4B29033010078400831311188317A3
:10129000800803194D2900304E290130F8007808E4
:1012A000780803130800113083166807F8006908EE
:1012B000FA000318FA0A7808EB007A08EC001030FC
:1012C000680784008313691883170008ED006B0812
:1012D000840083136C1883176D0880001030680732
:1012E00084008313691883176A088000831208003A
:1012F0001030831668078400831369188317000869
:10130000EA0083120B08F7008B1303178D01831675
:1013100003136A08831203178C0083168C130C15B1
:1013200055308D00AA308D008C148C1895290C1125
:101330007708831203138B04113083166807840027
:101340008313691883170008EA0083120B08F7005B
:101350008B13013003178D00831603136A08831261
:1013600003178C0083168C130C1555308D00AA3092
:101370008D008C148C18BA290C1177088312031372
:101380008B040800D1308400831300080319D52989
:101390000630F800F701F70BCB29F80BCA297B3090
:1013A000F700F70BD129800BC82908008316E90143
:1013B0003F30E800EA0183120020C8308316D100D4
:1013C0008312C2218316D001D101D201D30183122D
:1013D0000317A101D030A0000430A2008A1103132A
:1013E00049278A15C8308316D1008312C22183167B
:1013F000E9013F30E800EA018312002008004F08AD
:10140000F63E0318F62D0A3EF92D023003178D0023
:1014100083168C130C1483120C08013983160313E2
:10142000E500831203178D0183168C130C148312AD
:101430000C0883160313E9006908831203179E0042
:1014400003309F008A1103132F208A157708831613
:10145000E6000130831203178D0083168C130C14E1
:1014600083120C0883160313E9006908831203171B
:101470009E0003309F008A1103132F208A157708DE
:101480008316E700E708031D4A2AE608031D4A2AD7
:101490000230E7006508003A83120319532A013A23
:1014A0000319A52AF52A63308316EE008312031769
:1014B0009C01831603136E08831203179D003B30B3
:1014C0009E001030F8000130F9007908FA00780821
:1014D00083160313E8007A08E900EB01D630EA002E
:1014E0000F30F80068088400831369188317000818
:1014F000F7006A08840083136B188317770880004D
:10150000EA0A0319EB0AE80A0319E90AF80B722A36
:10151000DF010330831203178D0083168C130C1424
:1015200083120C0883160313E9006908831203175A
:101530009E0064309F008A1103132F208A157708BC
:101540008316E000E1018312F52A63308316EE0072
:10155000831203179C019D01831603136E088312E7
:1015600003179E001030F8000130F9007908FA00E6
:10157000780883160313E8007A08E900EB01D630F7
:10158000EA000F30F8006808840083136918831795
:101590000008F7006A08840083136B188317770824
:1015A0008000EA0A0319EB0AE80A0319E90AF80BB2
:1015B000C32ADF01E0010330831203178D00831675
:1015C0008C130C1483120C0883160313E9006908AA
:1015D000831203179E0064309F008A1103132F208B
:1015E0008A1577088316E100831283166608003A8D
:1015F00083120319022B013A0319CD2B033A031965
:10160000E02B0A2C8316E901D630E800EB01043008
:10161000EA00ED010530EC00EF010630EE00053088
:101620006807F8006908FA000318FA0A78088312B4
:10163000031790007A089100831603136A08831237
:1016400003178D0083168C130C1483120C08920060
:101650000C308316031368078400831369188317FB
:101660000130000783120317930012089E0013082D
:101670009F008A1103132F208A1577080317920001
:101680001008840083131118831712088000063095
:10169000831603136807F8006908FA000318FA0AAA
:1016A00078088312031790007A08910083160313B9
:1016B0006C08831203178D0083168C130C1483128D
:1016C0000C0892000D3083160313680784008313FF
:1016D000691883170130000783120317930012085B
:1016E0009E0013089F008A1103132F208A15770884
:1016F000031792001008840083131118831712082F
:1017000080000730831603136807F8006908FA00A1
:101710000318FA0A78088312031790007A089100D8
:10172000831603136E08831203178D0083168C1320
:101730000C1483120C0892000E30831603136807F2
:10174000840083136918831701300007831203177D
:10175000930012089E0013089F008A1103132F2084
:101760008A15770803179200100884008313111854
:1017700083171208800083160313E901D630E800AE
:101780008A11831218218A158316ED01D630EC00D8
:101790008A118312F4228A150A2C8A1133248A159D
:1017A0008316E901D630E8008A11831287258A154D
:1017B0008316E901D630E800EA01831200200A2CE2
:1017C0008316E901D630E8008A11831287258A152D
:1017D0008316E901D630E80083121121F8080319B5
:1017E0000A2C8A1133248A158316E901D630E800C1
:1017F0008A11831287258A158316E901D630E800FD
:101800000130EA00831253218316E901D630E80043
:1018100083127821D630F800F9017908FA007808A7
:101820008316D0007A08D100D3013F30D2001230A5
:10183000F800500884008313511883170008F7003C
:101840005208840083135318831777088000D20A44
:101850000319D30AD00A0319D10AF80B192CE9018C
:101860003F30E800EA0183120020F62D83160616A9
:101870008312061E782CBE19782C8316D1013F30B6
:10188000D00011305007F8005108FA000318FA0A86
:101890007808D2007A08D3001030500784008313F0
:1018A000511883170008D40052088400831353187A
:1018B0008317540880001030500784008313511898
:1018C000831702308000E9013F30E800831278215D
:1018D0008316E9013F30E8008A11831218218A1526
:1018E000D6218316E9013F30E800EA018312002087
:1018F000BE18832CBE148316E9013F30E800053082
:10190000EA0083125321F62D8316E9013F30E800E7
:101910008A11831287258A158316E9013F30E80072
:101920000130EA0083120020BE189F2CBE148316DB
:10193000E9013F30E8000530EA00831253218316A5
:1019400006168312061E4A2DBE194A2D8316D10192
:101950003F30D00011305007F8005108FA0003184A
:10196000FA0A7808D2007A08D300103050078400B1
:101970008313511883170008D4005208840083137E
:1019800053188317540880001030500784008313C5
:10199000511883178001D1013F30D0000530500726
:1019A00084008313511883170008D20083120B0898
:1019B000F7008B13043003178D00831603135208AE
:1019C000831203178C0083168C130C1555308D0071
:1019D000AA308D008C148C18EB2C0C117708831214
:1019E00003138B04063083165007840083135118A9
:1019F00083170008D20083120B08F7008B13053001
:101A000003178D00831603135208831203178C00EB
:101A100083168C130C1555308D00AA308D008C1454
:101A20008C18102D0C117708831203138B040730C8
:101A30008316500784008313511883170008D200BF
:101A400083120B08F7008B13063003178D008316E3
:101A500003135208831203178C0083168C130C1582
:101A600055308D00AA308D008C148C18352D0C113A
:101A70007708831203138B048316E9013F30E800D3
:101A800083127821D6218316E9013F30E800EA016C
:101A9000831200208316E9013F30E80083121121F0
:101AA000F80803196E2DD621D6218A1133248A1500
:101AB0008316E9013F30E8008A11831287258A15D1
:101AC0008316E9013F30E8000130EA008312532118
:101AD0008316E9013F30E80083127821F62D8A1140
:101AE00033248A158316D001D1010130D000D100F2
:101AF00083120317A101D030A0000230A2008A1186
:101B0000031349278A1508308316D000FA30D10014
:101B10008312C2218316D00B862DE9013F30E800E5
:101B20000930EA00831253210130D1008A11332495
:101B30008A158316E9013F30E8008A118312872550
:101B40008A158316E9013F30E800EA01831200207C
:101B5000F62D831606168312061EC82D831606144C
:101B60008312061CC82D831686148312861CC82D6A
:101B70008316E9013F30E800831251088316EA001A
:101B8000831253218316E9013F30E8008312782144
:101B9000F62DA2178316E9013F30E800EA0183120F
:101BA0000020831606168312061EEB2DBE19EB2DA0
:101BB000D6218316E9013F30E8000230EA008312A3
:101BC00053218316E9013F30E800831278218A11FE
:101BD00033248A15A2133E19F62D3E158316E9010A
:101BE0003F30E8000630EA00831253218A110A16BA
:101BF0000328000000000A108A140A15023E031888
:101C00008A0A8200362CC92D842CF62D052A6F2DC8
:101C1000F62DF62DF62DA92D0F30831650078400D2
:101C20008313511883178008031D722E5008F80083
:101C30005108FA007808D2007A08D3005308D5007A
:101C40005208D400D601D70108305407F8005508CF
:101C5000FA000318FA0A7808DE007A08DF00831217
:101C60000317A300831603135E0883120317A20051
:101C7000A4018A110313DC268A157908FA00780872
:101C80008316DE007A08DF00E101D830E00006307C
:101C9000F8005E08840083135F1883170008F700BC
:101CA0006008840083136118831777088000E00AB6
:101CB0000319E10ADE0A0319DF0AF80B492E5A0854
:101CC000D6005B08D700831203179D01D6309C0015
:101CD00002309E0001309F008A11031390278A155D
:101CE000D42E83160F3050078400831351188317A6
:101CF000000BD52E5008F8005108FA007808D200E1
:101D00007A08D3005308D5005208D400D601D70171
:101D100008305407F8005508FA000318FA0A780842
:101D2000DE007A08DF0083120317A3008316031373
:101D30005E0883120317A200A4018A110313DC2694
:101D40008A157908FA0078088316DE007A08DF0021
:101D5000E101D830E0000630F8005E08840083130B
:101D60005F1883170008F700600884008313611868
:101D7000831777088000E00A0319E10ADE0A0319D5
:101D8000DF0AF80BAD2E5C08D6005D08D700831281
:101D900003179D01D6309C0002309E0001309F0049
:101DA0008A11031390278A1583168312080083165D
:101DB000D001D101D201D301D401D501D601D7017F
:101DC00083120317A101D030A0000830A2008A11AD
:101DD000031349278A150317A101D030A00008304A
:101DE000A2008A11031349278A15080083160616D4
:101DF0008312061AFD2ED30AFF2ED301BE145308F8
:101E0000133C0318052FBE10D3010C30A7000F3070
:101E1000A8008A150A12DC2FF630A7000E30A800A1
:101E20008A150A12DC2F080083160614831206187E
:101E30001B2FD40A1D2FD4013E1554080C3C031847
:101E4000232F3E11D4012A30AE000F30AF008A1587
:101E50000A12DC2F1430AE000F30AF008A150A12C0
:101E6000DC2F08000130BE063B30BC000F30BD0047
:101E70008A150A12DC2F3230BC000F30BD008A15E3
:101E80000A12DC2F080003081F398300FF30A0006E
:101E90003E14BE143E15BE153E16BE16D201D30129
:101EA000D401831603170908C039890003131F12D0
:101EB0009F1200300317880083128701880189016F
:101EC0008313C83083160313D1008312C221FF305D
:101ED000831695008113950004308312CF00A20170
:101EE000A4010A30A300A6010130A500F630A70026
:101EF0000E30A800A901AB010A30AA00AD010230E2
:101F0000AC001430AE000F30AF00B001B2010130B0
:101F1000B100B401B3010030B5001030B600B70114
:101F2000B9010530B800BB01BA013230BC000F3036
:101F3000BD00A10183160108C039063881003D307B
:101F4000831281000B110310210DF7008A11232049
:101F50008A15F900013077078A1123208A15FA00C3
:101F60007908840083137A1883170008F900840A1B
:101F70000008F700840A0008F800840A800A0008B4
:101F8000FA00031DC62F840A800A8403840A00080D
:101F90007802031DDE2F77087A02031DDE2F8403EB
:101FA0008001840A8001840AF91BDE2F840A00085C
:101FB0008A0084030008820083120313A10A0430FC
:101FC0002102031DA32FA10101080B1DE92F831678
:0A1FD0009F2FE42FFF30A1006300F3
:102000000A128A15FF290A168A114F08063A03197F
:102010000D280E3A03191929B22A3E1C1A288316D4
:10202000D1013F30D0000A128A1583120C260A16FD
:102030008A111F280A128A15D7260A168A118316B2
:10204000861483128618C82883168614831286186D
:10205000C8288316D1013F30D0000F3050078400CC
:102060008313511883178008031D72285008F80045
:102070005108FA007808D2007A08D3005308D50036
:102080005208D4000A305407F8005508FA00031823
:10209000FA0A7808D6007A08D7000A305407840074
:1020A0008313551883170008D8000D305407840097
:1020B00083135518831700085802031D6128003048
:1020C00069280A3054078400831355188317013098
:1020D0000007D80056088400831357188317580840
:1020E0008000B5280F3050078400831351188317E0
:1020F000000BB5285008F8005108FA007808D20003
:102100007A08D3005308D5005208D4000B30540786
:10211000F8005508FA000318FA0A7808D6007A0879
:10212000D7000B3054078400831355188317000819
:10213000D8000E3054078400831355188317000805
:102140005802031DA5280030AD280B305407840029
:1021500083135518831701300007D80056088400F0
:1021600083135718831758088000D1013F30D000DF
:102170000A128A1583120C260A168A11C830831691
:10218000D1000A128A158312C2210A168A11242844
:102190005208013C0318D928D2018316E9013F30C7
:1021A000E8000830EA000A128A15831253210A1641
:1021B0008A113E1A1829831606148312061C182940
:1021C0008316D1013F30D0000F30500784008313B5
:1021D000511883178008031DFC280A30500784001B
:1021E0008313511883178008031DF8280030F9283D
:1021F0000130F800112911290F3050078400831392
:1022000051188317000B11290B30500784008313DA
:10221000511883178008031D0F2900301029013041
:10222000F800F808031D1629831218298312D20A10
:10223000B22A3E1C54298316D1013F30D0000F3002
:10224000500784008313511883178008031D3A290F
:10225000D201D3012530D200D30083120317A1018C
:10226000D230A0000230A2000A12031349270A1636
:10227000512983160F305007840083135118831798
:10228000000B5229D201D301B330D20083120317BD
:10229000A101D230A0000230A2000A120313492784
:1022A0000A1683165A2983120A128A15D7260A1685
:1022B0008A11831686148312861C032ABE1A032AE7
:1022C0008316D1013F30D0000F30500784008313B4
:1022D000511883178008031DB4290F30500784005C
:1022E000831351188317013080000B305007F8001A
:1022F0005108FA000318FA0A7808D2007A08D300C5
:102300000A30500784008313511883170008D40043
:1023100052088400831353188317540880000A302E
:102320005007840083135118831780010930500728
:10233000840083135118831780010C3050078400E8
:1023400083135118831780010D30500784008313C5
:102350005118831780010E305007840083135118E1
:10236000831763308000022A0F30500784008313E4
:1023700051188317000B022A0F3050078400831373
:1023800051188317800109305007840083135118B6
:10239000831780010A305007F8005108FA0003182B
:1023A000FA0A7808D2007A08D3000B30500784006C
:1023B0008313511883170008D40052088400831334
:1023C00053188317540880000B3050078400831380
:1023D0005118831780010C30500784008313511863
:1023E000831780010D305007840083135118831721
:1023F000633080000E305007840083135118831718
:102400003B30800083123E1AB22A831606148312D0
:10241000061CB22A8316D1013F30D0000F3050077E
:1024200084008313511883178008031D3D2A0A3046
:10243000500784008313511883170008D2008312B9
:102440000B08F7008B13033003178D00831603135B
:102450005208831203178C0083168C130C15553009
:102460008D00AA308D008C148C18342A0C1177083A
:10247000831203138B04692A83160F3050078400DC
:10248000831351188317000B6A2A0B3050078400FE
:102490008313511883170008D20083120B08F7002A
:1024A0008B13033003178D00831603135208831216
:1024B00003178C0083168C130C1555308D00AA3031
:1024C0008D008C148C18622A0C1177088312031368
:1024D0008B048316D1013F30D0000F3050078400A9
:1024E0008313511883170008D20083120B08F700DA
:1024F0008B13023003178D008316031352088312C7
:1025000003178C0083168C130C1555308D00AA30E0
:102510008D008C148C188A2A0C11770883120313EF
:102520008B040A1233240A168316E9013F30E800AF
:102530000A12831287250A168316E9013F30E80044
:102540000130EA000A128A15831253210A168A11F1
:102550008316E9013F30E8000A128A1583127821B8
:102560000A168A11831606168312BE11061ABE15A4
:102570008316061483123E1206183E16831686141E
:102580008312BE128618BE16CB30B5001230B600CC
:102590008A150A12DC2F0030B5001030B6008A15FB
:0625A0000A12DC2F080006
:04400E00822FFF3FBF
:00000001FF
;PIC16F886
;CRC=CF0E  CREATED="16-Nov-17 15:39"
